:100D2300E4FDFCC3ED9FEC9E5015E4FBFA0BBB0006
:100D3300010ABA01F8BB04F50DBD00010C80E422E1
:070DA1007FFF120DA87FFF88
:100DA8007E08C2B7EF3392B5EF25E0FFD2B7DEF287
:030DB800D2B5228F
:100DD1007E08C2B7D2B7EF25E0FF30B60343070163
:030DE100DEF0221F
:100DBB00E4FC120DD1AD07ED6009ED640160040C8C
:060DCB00BC09EFAF052298
:100D4300EF4440FF120DA8AF2B120DA8AF2C120DCC
:100D5300A8AF2D120DA8AF2E120DA8AF2F020DA80C
:100A5D00E4F516F517F518F5197D01D2B4FC7FFFF5
:100A6D00120DA80CBC0AF7C2B4E4F52EF52DF52C29
:100A7D00F52B752F95FF120D43120DBBAD07ED64D0
:100A8D000160037F0022BD0124D2B47FFF120DA8A7
:100A9D00C2B4752E00752DC0752CFF752B00752FEA
:100AAD00FF7F01120D43120DBBAD0780D9D2B47F6C
:070ABD00FF120DA87F0122CA
:100769008F248E238D228C218B258A268927C2B43A
:100779008F2E8E2D8D2C8C2B752FFF7F18120D43EC
:10078900120DBBEF706E120DA17FFF120DA87FFE37
:10079900120DA8E4FDFCC3ED9529EC9528501CAB7E
:1007A900250527E527AA267002052614F9120465EE
:1007B900FF120DA80DBD00010C80DBC3EC940250A3
:1007C9000CE4FF120DA80DBD00010C80EE120DA165
:1007D900120DD1AD07120DD1EF60FA53050FD2B446
:1007E9007FFF120DA8BD0B037F0022BD05037F010A
:0707F900227F00227F002295
:100979008B218A2289238F278E268D258C24C2B428
:100989008F2E8E2D8D2C8C2B752FFF7F11120D43E1
:10099900120DBBEF704C120DD1BFFEFAE4FDFCC382
:1009A900ED9529EC9528501C120DD1AB210523E5B5
:1009B90023AA227002052214F9EF1204AB0DBD001F
:1009C900010C80DBC3EC9402500A120DD10DBD005D
:1009D900010C80F0120DD1120DD1D2B4120DD17FBC
:0509E90001227F002245
:100DE400758920758DFD758BFDE4F587D28E759818
:020DF40050228B
:100E2A000000000032DB96750000000000000000A0
:06000300014B00014C005E
:100D63008F21E521D394004016C2A07F087E001294
:100D73000D01D2A07F087E00120D01152180E32210
:100E1A00438901758C3C758AB0D2AFD2A9C28C22A3
:100B25008B168A178918E4F519F51AF51BF51CF5C6
:100B350019F51AC3E5196480948250317400251A99
:100B4500F974003519752401F52589267527007571
:100B55002804AB16AA17A9181209EEEF7002D322C2
:0F0B65007404251AF51AE43519F51980C6C32250
:100BBF007E027F00900000E4F0A3DFFCDEFA7B01F1
:100BCF007A0079007528027529007F007E027D006A
:100BDF007C001207697F647E00120D017B017A0091
:100BEF0079007528027529007F007E027D007C0048
:050BFF00120979D32268
:1001D1008B168A17891878197C007D007BFF7A0EAF
:1001E100792A7E007F0412043FE4F51FF520F51DF6
:1001F100F51E744D251EF8E4F6051EE51E70020578
:100201001D6404451D70EB7B007A00794D7F52120D
:100211000AC4EF70F27B007A00794D12088CEF70FE
:10022100E67F01120D63E4F51DF51E744D251EF8E0
:10023100E6F5993099FDC2997F017E00120D010505
:100241001EE51E7002051DC39404E51D940040DBEC
:1002510075240075250075264D752700752804AB9A
:1002610016AA17A9181209EEEF700302033AE4F572
:100271001FF520F51DF51EC3E51D9402503F7400C6
:10028100251EF97400351DFA7B01C0031B8B2475F3
:10029100250075264D752700752804D0031209EE37
:1002A100EF700D7F01120D63751F00752001800D28
:1002B1007404251EF51EE4351DF51D80BAE5206484
:1002C10001451F7003020208E4F51DF51EC3E51D7B
:1002D1009402505B7400251EF97400351DFA7B01F0
:1002E100C0031B8B247525007526197527007528F9
:1002F10004D0031209EEEF7029FFFE744D2FF8E6CA
:10030100FDE51E2FFBE51D3EFA74002BF5827400FE
:100311003AF583EDF00FBF00010EEF64044E70DB80
:10032100800D7404251EF51EE4351DF51D809E7F8C
:10033100147E00120D010202087B017A007900751A
:1003410028027529007F007E027D007C001207696A
:100351007F647E00120D017B017A0079007528020D
:0E0361007529007F007E027D007C0002097974
:100674008B518A528953E4F554F555744D2555F838
:10068400E4F60555E555700205546404455470EBD1
:100694007B007A00794D7F52120AC4EF70F27B001E
:1006A4007A00794D12088CEF70E67F01120D637F9A
:1006B400147E00120D0175240075250075264D75F4
:1006C4002700752804AB51AA52A9531209EEEF6012
:1006D4005FE4F554F555C3E554940250B374002512
:1006E40055F974003554FA7B01C0031B8B2475251E
:1006F4000075264D752700752804D0031209EEEF06
:100704007021FFFEE5552FFDE5543EFC74002DF5E8
:100714008274003CF583E4F00FBF00010EEF640423
:100724004E70E174042555F555E43554F55480A60E
:100734007B017A0079007528027529007F007E020A
:100744007D007C001207697F647E00120D017B012D
:100754007A0079007528027529007F007E027D00E9
:050764007C0002097990
:10000E0078087C007D007BFF7A0E792E7E007F08BB
:10001E0012043F78107C007D007BFF7A0E79367ECD
:10002E00007F0412043FD295120DE4120E1A120A2A
:10003E005D120C86120E477F017E00120D01120E0C
:10004E00087F41120B74E4F514F51574002515F5AF
:10005E008274003514F583E4F00515E5157002057C
:10006E0014B400E7E514B402E27B017A007900755E
:10007E0028027529007F007E027D007C001209791E
:10008E007F0A7E00120D01E4F514F5157400251596
:10009E00F58274003514F583E0F5993099FDC29917
:1000AE007F017E00120D010515E51570020514C3C2
:1000BE00E514940240D67F05120D637B007A007919
:1000CE004D7F52120AC4EF70F27B007A00794D1206
:1000DE00088CEF70E675240075250075264D752782
:1000EE00007528047B007A0079101209EEEF700774
:1000FE00E54BB4010280C4754B01C28CD28C7F01DA
:10010E00120D63E4F514F515744D2515F8E6F59901
:10011E003099FDC2997F017E00120D010515E5157E
:10012E0070020514C39404E514940040DB7524009A
:10013E0075250075264D7527007528047B007A00FD
:10014E0079081209EEEF7017C2957F32FE120D017B
:10015E00D2957F02120D637B007A0079088030758C
:10016E00240075250075264D7527007528047B0023
:10017E007A00790C1209EEEF701FC2957F32FE12D3
:10018E000D01D2957F02120D637B007A00790C125D
:10019E0001D17F02120D6380247B007A00794D120B
:1001AE000B25500DC2957F327E00120D01D2958027
:1001BE00057F01120D637F647E00120D01120CC4C7
:0301CE000200C963
:03000B00020D8360
:100D8300C0E0C0D0758C3C758AB0054CE54CB464AA
:0E0D930008754B00754C00C28CD0D0D0E032F9
:100AC4008F218B228A238924120DF67D077F0D1234
:100AD4000C4B7D037F14120E3A852127753E017558
:100AE4003F00754000754127754200754300754409
:100AF400257A0079271204FEEF7023E52664104559
:100B040025701BAB22AA23A924E5271204ABAB2230
:100B1400AA23A924900001E5281204BD80027FFEC7
:010B240022AE
:10088C008B218A228923E4F525120DF6E4FD7F0DD8
:10089C00120C4B7D807F0E120DFA75289375292052
:1008AC00753E02753F007540007541287542007514
:1008BC0043007544267A0079281204FE8F24E5241F
:1008CC00702BFF74282FF8E6AB21AA22A9238F8264
:1008DC007583001204BD74282FF8E662250FBF043F
:1008EC00E274282FF8E6652560037524FE7D807F71
:0708FC000E120E3AAF242298
:100CC400751950E4F51AF52F75300075311BFB7A50
:100CD4000079197D02120903753E04753F007540C1
:100CE400007541197542007543007544177B007AFD
:0D0CF4000079197F0C1205028F167F002277
:100903008B2B8A2C892D8D2E7D047F05120DFA12D7
:100913000C477D807F0A120E3AE4F532E532C39527
:100923002E5019AB2BAA2CA92D8532827583001268
:10093300047EFD7F09120C4B053280E07D037F01AD
:10094300120C4B7532FF7F05120C0A1532E532602B
:1009530004EF30E2F17F22120C0AAB2FAA30A93147
:10096300EF1204AB7F21120C0AAB2FAA30A93190EE
:060973000001EF0204BDCB
:100C8600D29400C29400D294007D0F7F01120C4BC7
:100C9600007D3D7F11120C4B7D1E7F2D120C4BE407
:100CA600FD7F2C120C4B7D8D7F2A120C4B7D3E7FD7
:0E0CB6002B120C4B7D407F15120C4B7F002241
:100B7400EF64417040120DF67D3D7F11120C4B7DE8
:100B8400867F17120C4B7D7F7F26120C4B7D1E7FB8
:100B94002D120C4BE4FD7F2C120C4B7D8D7F2A1201
:100BA4000C4B7D3E7F2B120C4B7F017E00120D01FE
:0B0BB400120E0880037FFF227F00224A
:060C0400AC07AB05E4FEA5
:100C0A00E4FEC291C292EF25E0547E4480FF7D0843
:100C1A00EF30E703D38001C39290D291EF25E0FF32
:100C2A00C291DDEC7D08D291EE25E0FEA293E43379
:0D0C3A004206C291DDF0D292D291AF0622A7
:040C4700E4FD7F0148
:100C4B00C291C292EF25E0547EFF7E08EF30E7039E
:100C5B00D38001C39290D291EF25E0FFC291DEECDD
:100C6B007E08ED30E703D38001C39290D291ED253E
:0B0C7B00E0FDC291DEECD292D291228B
:0D0E3A00120C04AE07AF04EB4EFD020C4B92
:040DF6007D087F08ED
:0E0DFA00120C04AE07AF04EBF45EFD020C4BCE
:0404FE007B007F0CF4
:100502008F3A8B3B8A3C893D7545FEE4F546F547BB
:10051200E53A24F4600C24FE700E754612754710FD
:100522008006754677754730E5464480FD7F0212A6
:100532000C4B7D807F04120DFA120C477D807F0ADE
:10054200120E3AE4F549F54AC3E54A953EE5499467
:1005520000501FAB3BAA3CA93D854A8285498312C4
:10056200047EFD7F09120C4B054AE54A70DA054903
:1005720080D6AD3A7F01120C4BE53AB40C077D8070
:100582007F0D120E3A754907754AD07F04120C0A84
:100592008F48E54A154A70021549E54A45496009FE
:1005A200E54820E004554760E27D807F0D120DFA98
:1005B200E54A454970030206677F06120C0AEF54AA
:1005C2001B6003020664F545E548554630E00375B5
:1005D20045FFE53A640C60030206677F0A120C0AC3
:1005E2008F487F0C120C0AEF5407FD6021E5482466
:1005F200FFFFE434FFFEEF7803C333CE33CED8F9E6
:100602007C002DFFEC3EAB42AA43A944800FE54893
:1006120075F008A4FFAB42AA43A944E5F08FF0129B
:1006220004DFE5487003754801E548D3941240039E
:10063200754812E4F549F54AC3E54A9548E54994F7
:100642000050227F09120C0AAB3FAA40A941854AF9
:1006520082854983EF1204BD054AE54A70DA0549ED
:1006620080D67545FE7D807F0C120E3A120C47AF84
:0206720045221F
:100E08007F14120C0AEF540370077D037F14120E2F
:020E18003A227C
:070E47007D037F14020DFA88
:100D010075CBDC75CA0075CDDC75CC00D2CAEF1F7E
:100D1100AC0670011E4C600730CFFDC2CF80EFC220
:020D2100CA22E4
:03000000020800F3
:0C080000787FE4F6D8FD758155020847AA
:10036F00E709F608DFFA8046E709F208DFFA803E70
:10037F0088828C83E709F0A3DFFA8032E309F6085D
:10038F00DFFA8078E309F208DFFA807088828C83C5
:10039F00E309F0A3DFFA806489828A83E0A3F60879
:1003AF00DFFA805889828A83E0A3F208DFFA804C53
:1003BF0080D280FA80C680D4806980F2803380102A
:1003CF0080A680EA809A80A880DA80E280CA803393
:1003DF0089828A83ECFAE493A3C8C582C8CCC5830B
:1003EF00CCF0A3C8C582C8CCC583CCDFE9DEE780DB
:1003FF000D89828A83E493A3F608DFF9ECFAA9F05A
:10040F00EDFB2289828A83ECFAE0A3C8C582C8CCAF
:10041F00C583CCF0A3C8C582C8CCC583CCDFEADEC8
:10042F00E880DB89828A83E493A3F208DFF980CC2A
:10043F0088F0EF60010E4E60C388F0ED2402B40423
:10044F000050B9F582EB2402B4040050AF232345CA
:06045F0082239003BF732D
:10046500BB010689828A83E0225002E722BBFE0295
:09047500E32289828A83E49322C8
:10047E00BB010CE58229F582E5833AF583E0225033
:10048E0006E92582F8E622BBFE06E92582F8E2227D
:0D049E00E58229F582E5833AF583E4932297
:1004AB00BB010689828A83F0225002F722BBFE0130
:0204BB00F3222A
:1004BD00F8BB010DE58229F582E5833AF583E8F075
:1004CD00225006E92582C8F622BBFE05E92582C821
:0204DD00F22209
:1004DF00BB010A89828A83F0E5F0A3F0225006F768
:0F04EF0009A7F01922BBFE06F3E5F009F3192265
:1009EE008B218A228923AB24AA25A926120465FE0F
:1009FE00AB21AA22A923120465FF6E702BEF600DA6
:100A0E00E52815287002152714452770037F00224C
:100A1E0074012523F523E43522F52274012526F5EC
:100A2E0026E43525F52580BEAB21AA22A923120482
:100A3E0065FDD3EE6480F8ED64809840037F01225B
:0F0A4E00AB24AA25A926120465FFC3ED9FFF2242
:10080C0002000EE493A3F8E493A34003F68001F2F4
:10081C0008DFF48029E493A3F85407240CC8C333ED
:10082C00C4540F4420C8834004F456800146F6DFBC
:10083C00E4800B0102040810204080900003E47E49
:10084C00019360BCA3FF543F30E509541FFEE493B1
:10085C00A360010ECF54C025E060A840B8E493A378
:10086C00FAE493A3F8E493A3C8C582C8CAC583CAA3
:10087C00F0A3C8C582C8CAC583CADFE9DEE780BE5B
:0100090000F6
:00000001FF
